S012000030395F5379737469636B2E7372656360
S1130000702400200502000001020000010200002B
S113001000000000000000000000000000000000DC
S113002000000000000000000000000001020000C9
S11300300000000000000000010200002D03000089
S113004001020000010200000102000001020000A0
S11300500102000001020000010200000102000090
S11300600102000001020000010200000102000080
S11300700102000001020000010200000102000070
S11300800102000001020000010200000102000060
S11300900102000001020000010200000102000050
S11300A00102000001020000010200000102000040
S11300B00000000010B5064C2378002B07D1054B37
S11300C0002B02D0044800E000BF0123237010BDC0
S11300D02C0400200000000028050000084B10B587
S11300E0002B03D00749084800E000BF0748036815
S11300F0002B00D110BD064B002BFBD09847F9E72D
S1130100000000003004002028050000280500003D
S11301100000000010B5044B984780239B02034A5B
S11301201360034A136010BD350100000044004110
S113013014440041284A53681E218B431C390B4345
S11301405360264B264A9A829A8A0A439A821A0054
S1130150D3689B07FCD5234B0222FF329A60224AC4
S11301605A601A005378DB09FCD18222D2011D4B5C
S11301705A801A4AD368DB06FCD50222174B9A84AC
S11301801A00D368DB06FCD5184A144BDA621A004D
S1130190D368DB06FCD5164B1A6810498B6A920E9D
S11301A092021448034013438B620A00D368DB06AF
S11301B0FCD50A4A938C10490B439384D3681B06DD
S11301C0FCD5D3685B06F9D50C4A064B5A601A0075
S11301D05378DB09FCD1704700400041000800401F
S11301E00C070000000C004001050300B905FF7D69
S11301F024608000FF03FFFF0608000000070B00D7
S1130200FEE70000F8B52A4A2A4B9A4211D01A0098
S1130210294B9A420DD2294A03339B1A9B08013376
S11302209B000022234822498C58845004329A426D
S1130230FAD1234A234B9A420AD2D34321495B1869
S113024003218B4304339B18002102C29342FCD147
S11302501D4AFF211D4B8B439360FD3990235B00A6
S11302601B4AD1501B4AD3780325AB4302242343B2
S1130270D370D3780C27BB4308263343D370164B73
S1130280987B30229043202210439873997BB94382
S1130290314399739A7BAA4322439A730F4A536852
S11302A080210B4353600E4B98470E4B9847FEE753
S11302B028050000000000202C0400200400002079
S11302C02C0400207004002000ED00E00000000079
S11302D000700041005000410048004100400041CE
S11302E061030000E902000010B50C4B98470C4A6A
S11302F05C21535C0120034353541E39535C0F208B
S11303008343072003435354064B074A5A60002291
S11303109A601A6837390A431A60FEE7150100002B
S11303200044004110E000E00024F400094A13787E
S11303300133DBB21370032B03D00022064B9A6007
S1130340704780229202054BDA610022014B1A7039
S1130350F3E7C0464804002010E000E000440041F8
S113036070B50D4E0D4D0024AD1BAD1005D0A3008E
S1130370F35801349847A542F9D100F0C3F8084E68
S1130380084D0024AD1BAD1005D0A300F358013473
S11303909847A542F9D170BD100500001005000072
S11303A01005000018050000034B10B5002B02D007
S11303B0024800F005F810BD00000000D103000061
S11303C010B5010000230022002000F01FF810BD2A
S11303D070B5094B094CE41AA41009D0084AA518B1
S11303E0AD00ED182B68013C9847043D002CF9D171
S11303F000F092F870BDC0462405000028050000F6
S1130400FFFFFF3F7047C0467047C046F0B54E46F9
S11304104546DE465746E0B5364D83B006002868AB
S113042098460F009146FFF7EDFF334B1C68A42359
S11304305B00E058002852D043681F2B13DC5A1C81
S11304400192002E28D1019A02339B0042601F5072
S11304502868FFF7D9FF002003B03CBC90469946BA
S1130460A246AB46F0BD254B002B3DD0C820400032
S113047000E000BF002837D0A42200235200A15876
S113048043600160A05040328350043283500133F2
S113049001930023002ED6D09A00924682444A4605
S11304A0882154466250C4225200914681444A46EF
S11304B08739994012688B460A4394464A466146F6
S11304C01160842241465200A150022EBBD1020089
S11304D05C468D32FF3211680C431460B3E7200090
S11304E04D30FF30E050A7E72868FFF78DFF01206B
S11304F04042B1E72804002000050000000000008D
S113050000000020F8B5C046F8BC08BC9E46704701
S1130510A9030000DD000000F8B5C046F8BC08BC23
S10B05209E467047B50000007F
S113052800000000EC02002054030020BC0300205B
S113053800000000000000000000000000000000AF
S1130548000000000000000000000000000000009F
S1130558000000000000000000000000000000008F
S1130568000000000000000000000000000000007F
S1130578000000000000000000000000000000006F
S1130588000000000000000000000000000000005F
S1130598000000000000000000000000000000004F
S11305A8000000000000000000000000000000003F
S11305B8000000000000000000000000000000002F
S11305C8000000000000000001000000000000001E
S11305D80E33CDAB34126DE6ECDE05000B000000E3
S11305E800000000000000000000000000000000FF
S11305F800000000000000000000000000000000EF
S113060800000000000000000000000000000000DE
S113061800000000000000000000000000000000CE
S10F094800000000000000004C0400202F
S9030000FC
